{
  "_format": "hh-sol-artifact-1",
  "contractName": "MerkleProof",
  "sourceName": "contracts/merkle.sol",
  "abi": [
    {
      "inputs": [],
      "stateMutability": "nonpayable",
      "type": "constructor"
    },
    {
      "inputs": [],
      "name": "NotOwner",
      "type": "error"
    },
    {
      "inputs": [],
      "name": "VerificationFailed",
      "type": "error"
    },
    {
      "anonymous": false,
      "inputs": [
        {
          "indexed": true,
          "internalType": "bytes32",
          "name": "leaf",
          "type": "bytes32"
        }
      ],
      "name": "VerifySuccess",
      "type": "event"
    },
    {
      "inputs": [],
      "name": "owner",
      "outputs": [
        {
          "internalType": "address",
          "name": "",
          "type": "address"
        }
      ],
      "stateMutability": "view",
      "type": "function"
    },
    {
      "inputs": [],
      "name": "root",
      "outputs": [
        {
          "internalType": "bytes32",
          "name": "",
          "type": "bytes32"
        }
      ],
      "stateMutability": "view",
      "type": "function"
    },
    {
      "inputs": [
        {
          "internalType": "bytes32",
          "name": "_root",
          "type": "bytes32"
        }
      ],
      "name": "setRoot",
      "outputs": [],
      "stateMutability": "nonpayable",
      "type": "function"
    },
    {
      "inputs": [
        {
          "internalType": "bytes32[]",
          "name": "proof",
          "type": "bytes32[]"
        },
        {
          "internalType": "bytes32",
          "name": "leaf",
          "type": "bytes32"
        }
      ],
      "name": "verify",
      "outputs": [],
      "stateMutability": "nonpayable",
      "type": "function"
    }
  ],
  "bytecode": "0x608060405234801561000f575f80fd5b50600180546001600160a01b031916331790556103318061002f5f395ff3fe608060405234801561000f575f80fd5b506004361061004a575f3560e01c80638da5cb5b1461004e578063972a2a6214610098578063dab5f340146100ad578063ebf0c717146100c0575b5f80fd5b60015461006e9073ffffffffffffffffffffffffffffffffffffffff1681565b60405173ffffffffffffffffffffffffffffffffffffffff90911681526020015b60405180910390f35b6100ab6100a6366004610211565b6100d6565b005b6100ab6100bb3660046102d0565b6101a8565b6100c85f5481565b60405190815260200161008f565b805f5b835181101561013e575f8482815181106100f5576100f56102e7565b60200260200101519050828160405160200161011b929190918252602082015260400190565b60408051601f1981840301815291905280516020909101209250506001016100d9565b505f5481036101765760405182907fae4c12302fd53be22d57399add8b6e042907f1e277a8129803cbcbae0fd60513905f90a2505050565b6040517f439cc0cd00000000000000000000000000000000000000000000000000000000815260040160405180910390fd5b60015473ffffffffffffffffffffffffffffffffffffffff1633146101f9576040517f30cd747100000000000000000000000000000000000000000000000000000000815260040160405180910390fd5b5f55565b634e487b7160e01b5f52604160045260245ffd5b5f8060408385031215610222575f80fd5b823567ffffffffffffffff80821115610239575f80fd5b818501915085601f83011261024c575f80fd5b8135602082821115610260576102606101fd565b8160051b604051601f19603f83011681018181108682111715610285576102856101fd565b6040529283528183019350848101820192898411156102a2575f80fd5b948201945b838610156102c0578535855294820194938201936102a7565b9997909101359750505050505050565b5f602082840312156102e0575f80fd5b5035919050565b634e487b7160e01b5f52603260045260245ffdfea2646970667358221220fb0692df5c00c980b08ad2c5bff2a8a6b8970d9ce3248e838281b12f78029b4464736f6c63430008180033",
  "linkReferences": {},
  "deployedLinkReferences": {}
}