{
  "_format": "hh-sol-artifact-1",
  "contractName": "SPVVerifier",
  "sourceName": "contracts/merkle.sol",
  "abi": [
    {
      "inputs": [],
      "stateMutability": "nonpayable",
      "type": "constructor"
    },
    {
      "inputs": [],
      "name": "NotOwner",
      "type": "error"
    },
    {
      "inputs": [],
      "name": "VerifyError",
      "type": "error"
    },
    {
      "anonymous": false,
      "inputs": [
        {
          "indexed": true,
          "internalType": "address",
          "name": "verifier",
          "type": "address"
        },
        {
          "indexed": false,
          "internalType": "bytes32",
          "name": "proofHash",
          "type": "bytes32"
        }
      ],
      "name": "VerifySuccess",
      "type": "event"
    },
    {
      "inputs": [],
      "name": "merkleRoot",
      "outputs": [
        {
          "internalType": "bytes32",
          "name": "",
          "type": "bytes32"
        }
      ],
      "stateMutability": "view",
      "type": "function"
    },
    {
      "inputs": [],
      "name": "owner",
      "outputs": [
        {
          "internalType": "address",
          "name": "",
          "type": "address"
        }
      ],
      "stateMutability": "view",
      "type": "function"
    },
    {
      "inputs": [
        {
          "internalType": "bytes32",
          "name": "_newRoot",
          "type": "bytes32"
        }
      ],
      "name": "syncRoot",
      "outputs": [],
      "stateMutability": "nonpayable",
      "type": "function"
    },
    {
      "inputs": [
        {
          "internalType": "bytes32[]",
          "name": "proof",
          "type": "bytes32[]"
        },
        {
          "internalType": "bytes32",
          "name": "leaf",
          "type": "bytes32"
        }
      ],
      "name": "verify",
      "outputs": [],
      "stateMutability": "nonpayable",
      "type": "function"
    }
  ],
  "bytecode": "0x608060405234801561000f575f80fd5b50600180546001600160a01b031916331790556103678061002f5f395ff3fe608060405234801561000f575f80fd5b506004361061004a575f3560e01c80632eb4a7ab1461004e5780638da5cb5b14610069578063972a2a62146100ae578063a7279711146100c3575b5f80fd5b6100565f5481565b6040519081526020015b60405180910390f35b6001546100899073ffffffffffffffffffffffffffffffffffffffff1681565b60405173ffffffffffffffffffffffffffffffffffffffff9091168152602001610060565b6100c16100bc366004610247565b6100d6565b005b6100c16100d1366004610306565b610158565b5f80546100e5908490846101ad565b90508061011e576040517f4fbee53800000000000000000000000000000000000000000000000000000000815260040160405180910390fd5b60405182815233907f194482649ffcba611201a22980b8a6a7fd53be5ec3120329141bbdb261cd74049060200160405180910390a2505050565b60015473ffffffffffffffffffffffffffffffffffffffff1633146101a9576040517f30cd747100000000000000000000000000000000000000000000000000000000815260040160405180910390fd5b5f55565b5f826101b985846101c2565b14949350505050565b5f81815b84518110156101fc576101f2828683815181106101e5576101e561031d565b6020026020010151610204565b91506001016101c6565b509392505050565b5f81831061021e575f82815260208490526040902061022c565b5f8381526020839052604090205b9392505050565b634e487b7160e01b5f52604160045260245ffd5b5f8060408385031215610258575f80fd5b823567ffffffffffffffff8082111561026f575f80fd5b818501915085601f830112610282575f80fd5b813560208282111561029657610296610233565b8160051b604051601f19603f830116810181811086821117156102bb576102bb610233565b6040529283528183019350848101820192898411156102d8575f80fd5b948201945b838610156102f6578535855294820194938201936102dd565b9997909101359750505050505050565b5f60208284031215610316575f80fd5b5035919050565b634e487b7160e01b5f52603260045260245ffdfea26469706673582212202a70bb8ed4e12b317f1c1d2498bc9b3bbfc3f03592332dc929ee02efc532d1be64736f6c63430008180033",
  "linkReferences": {},
  "deployedLinkReferences": {}
}